{
  "contractName": "Blocation",
  "abi": [
    {
      "inputs": [],
      "stateMutability": "nonpayable",
      "type": "constructor"
    },
    {
      "anonymous": false,
      "inputs": [
        {
          "indexed": true,
          "internalType": "address",
          "name": "owner",
          "type": "address"
        },
        {
          "indexed": true,
          "internalType": "address",
          "name": "approved",
          "type": "address"
        },
        {
          "indexed": true,
          "internalType": "uint256",
          "name": "tokenId",
          "type": "uint256"
        }
      ],
      "name": "Approval",
      "type": "event"
    },
    {
      "anonymous": false,
      "inputs": [
        {
          "indexed": true,
          "internalType": "address",
          "name": "owner",
          "type": "address"
        },
        {
          "indexed": true,
          "internalType": "address",
          "name": "operator",
          "type": "address"
        },
        {
          "indexed": false,
          "internalType": "bool",
          "name": "approved",
          "type": "bool"
        }
      ],
      "name": "ApprovalForAll",
      "type": "event"
    },
    {
      "anonymous": false,
      "inputs": [
        {
          "indexed": true,
          "internalType": "address",
          "name": "from",
          "type": "address"
        },
        {
          "indexed": true,
          "internalType": "address",
          "name": "to",
          "type": "address"
        },
        {
          "indexed": true,
          "internalType": "uint256",
          "name": "tokenId",
          "type": "uint256"
        }
      ],
      "name": "Transfer",
      "type": "event"
    },
    {
      "inputs": [
        {
          "internalType": "address",
          "name": "to",
          "type": "address"
        },
        {
          "internalType": "uint256",
          "name": "tokenId",
          "type": "uint256"
        }
      ],
      "name": "approve",
      "outputs": [],
      "stateMutability": "nonpayable",
      "type": "function"
    },
    {
      "inputs": [
        {
          "internalType": "address",
          "name": "owner",
          "type": "address"
        }
      ],
      "name": "balanceOf",
      "outputs": [
        {
          "internalType": "uint256",
          "name": "",
          "type": "uint256"
        }
      ],
      "stateMutability": "view",
      "type": "function",
      "constant": true
    },
    {
      "inputs": [
        {
          "internalType": "uint256",
          "name": "tokenId",
          "type": "uint256"
        }
      ],
      "name": "getApproved",
      "outputs": [
        {
          "internalType": "address",
          "name": "",
          "type": "address"
        }
      ],
      "stateMutability": "view",
      "type": "function",
      "constant": true
    },
    {
      "inputs": [
        {
          "internalType": "address",
          "name": "owner",
          "type": "address"
        },
        {
          "internalType": "address",
          "name": "operator",
          "type": "address"
        }
      ],
      "name": "isApprovedForAll",
      "outputs": [
        {
          "internalType": "bool",
          "name": "",
          "type": "bool"
        }
      ],
      "stateMutability": "view",
      "type": "function",
      "constant": true
    },
    {
      "inputs": [],
      "name": "name",
      "outputs": [
        {
          "internalType": "string",
          "name": "",
          "type": "string"
        }
      ],
      "stateMutability": "view",
      "type": "function",
      "constant": true
    },
    {
      "inputs": [
        {
          "internalType": "uint256",
          "name": "tokenId",
          "type": "uint256"
        }
      ],
      "name": "ownerOf",
      "outputs": [
        {
          "internalType": "address",
          "name": "",
          "type": "address"
        }
      ],
      "stateMutability": "view",
      "type": "function",
      "constant": true
    },
    {
      "inputs": [
        {
          "internalType": "address",
          "name": "from",
          "type": "address"
        },
        {
          "internalType": "address",
          "name": "to",
          "type": "address"
        },
        {
          "internalType": "uint256",
          "name": "tokenId",
          "type": "uint256"
        }
      ],
      "name": "safeTransferFrom",
      "outputs": [],
      "stateMutability": "nonpayable",
      "type": "function"
    },
    {
      "inputs": [
        {
          "internalType": "address",
          "name": "from",
          "type": "address"
        },
        {
          "internalType": "address",
          "name": "to",
          "type": "address"
        },
        {
          "internalType": "uint256",
          "name": "tokenId",
          "type": "uint256"
        },
        {
          "internalType": "bytes",
          "name": "_data",
          "type": "bytes"
        }
      ],
      "name": "safeTransferFrom",
      "outputs": [],
      "stateMutability": "nonpayable",
      "type": "function"
    },
    {
      "inputs": [
        {
          "internalType": "address",
          "name": "operator",
          "type": "address"
        },
        {
          "internalType": "bool",
          "name": "approved",
          "type": "bool"
        }
      ],
      "name": "setApprovalForAll",
      "outputs": [],
      "stateMutability": "nonpayable",
      "type": "function"
    },
    {
      "inputs": [
        {
          "internalType": "bytes4",
          "name": "interfaceId",
          "type": "bytes4"
        }
      ],
      "name": "supportsInterface",
      "outputs": [
        {
          "internalType": "bool",
          "name": "",
          "type": "bool"
        }
      ],
      "stateMutability": "view",
      "type": "function",
      "constant": true
    },
    {
      "inputs": [],
      "name": "symbol",
      "outputs": [
        {
          "internalType": "string",
          "name": "",
          "type": "string"
        }
      ],
      "stateMutability": "view",
      "type": "function",
      "constant": true
    },
    {
      "inputs": [
        {
          "internalType": "uint256",
          "name": "tokenId",
          "type": "uint256"
        }
      ],
      "name": "tokenURI",
      "outputs": [
        {
          "internalType": "string",
          "name": "",
          "type": "string"
        }
      ],
      "stateMutability": "view",
      "type": "function",
      "constant": true
    },
    {
      "inputs": [],
      "name": "totalTokenSuppy",
      "outputs": [
        {
          "internalType": "uint256",
          "name": "_value",
          "type": "uint256"
        }
      ],
      "stateMutability": "view",
      "type": "function",
      "constant": true
    },
    {
      "inputs": [
        {
          "internalType": "address",
          "name": "from",
          "type": "address"
        },
        {
          "internalType": "address",
          "name": "to",
          "type": "address"
        },
        {
          "internalType": "uint256",
          "name": "tokenId",
          "type": "uint256"
        }
      ],
      "name": "transferFrom",
      "outputs": [],
      "stateMutability": "nonpayable",
      "type": "function"
    },
    {
      "inputs": [
        {
          "internalType": "string",
          "name": "_tag",
          "type": "string"
        },
        {
          "internalType": "string",
          "name": "_long",
          "type": "string"
        },
        {
          "internalType": "string",
          "name": "_lat",
          "type": "string"
        }
      ],
      "name": "createBlocation",
      "outputs": [],
      "stateMutability": "nonpayable",
      "type": "function"
    },
    {
      "inputs": [
        {
          "internalType": "uint256",
          "name": "_tokenId",
          "type": "uint256"
        }
      ],
      "name": "getBlocation",
      "outputs": [
        {
          "internalType": "string",
          "name": "",
          "type": "string"
        }
      ],
      "stateMutability": "view",
      "type": "function",
      "constant": true
    },
    {
      "inputs": [
        {
          "internalType": "address",
          "name": "to",
          "type": "address"
        },
        {
          "internalType": "uint256",
          "name": "_tokenId",
          "type": "uint256"
        }
      ],
      "name": "transferBlocation",
      "outputs": [],
      "stateMutability": "nonpayable",
      "type": "function"
    },
    {
      "inputs": [],
      "name": "blocationsOfOwner",
      "outputs": [
        {
          "internalType": "uint256[]",
          "name": "",
          "type": "uint256[]"
        }
      ],
      "stateMutability": "view",
      "type": "function",
      "constant": true
    }
  ],
  "bytecode": "0x60806040523480156200001157600080fd5b506040518060400160405280600981526020017f426c6f636174696f6e00000000000000000000000000000000000000000000008152506040518060400160405280600581526020017f424c43544e000000000000000000000000000000000000000000000000000000815250816000908051906020019062000096929190620000b8565b508060019080519060200190620000af929190620000b8565b505050620001cd565b828054620000c69062000168565b90600052602060002090601f016020900481019282620000ea576000855562000136565b82601f106200010557805160ff191683800117855562000136565b8280016001018555821562000136579182015b828111156200013557825182559160200191906001019062000118565b5b50905062000145919062000149565b5090565b5b80821115620001645760008160009055506001016200014a565b5090565b600060028204905060018216806200018157607f821691505b602082108114156200019857620001976200019e565b5b50919050565b7f4e487b7100000000000000000000000000000000000000000000000000000000600052602260045260246000fd5b612fc480620001dd6000396000f3fe608060405234801561001057600080fd5b5060043610610133576000357c01000000000000000000000000000000000000000000000000000000009004806395d89b41116100bf578063db21c75c1161008e578063db21c75c1461030c578063e03005221461032a578063e985e9c514610346578063eb83eb6614610376578063fca0c2cc1461039457610133565b806395d89b4114610286578063a22cb465146102a4578063b88d4fde146102c0578063c87b56dd146102dc57610133565b806323b872dd1161010657806323b872dd146101d257806342842e0e146101ee5780636352211e1461020a5780636f1b905d1461023a57806370a082311461025657610133565b806301ffc9a71461013857806306fdde0314610168578063081812fc14610186578063095ea7b3146101b6575b600080fd5b610152600480360381019061014d9190611f5a565b6103c4565b60405161015f91906128e3565b60405180910390f35b6101706104a6565b60405161017d91906128fe565b60405180910390f35b6101a0600480360381019061019b9190612043565b610538565b6040516101ad919061285a565b60405180910390f35b6101d060048036038101906101cb9190611f1e565b6105bd565b005b6101ec60048036038101906101e79190611e18565b6106d5565b005b61020860048036038101906102039190611e18565b610735565b005b610224600480360381019061021f9190612043565b610755565b604051610231919061285a565b60405180910390f35b610254600480360381019061024f9190611f1e565b610807565b005b610270600480360381019061026b9190611db3565b61081d565b60405161027d9190612b20565b60405180910390f35b61028e6108d5565b60405161029b91906128fe565b60405180910390f35b6102be60048036038101906102b99190611ee2565b610967565b005b6102da60048036038101906102d59190611e67565b610ae8565b005b6102f660048036038101906102f19190612043565b610b4a565b60405161030391906128fe565b60405180910390f35b610314610bf1565b60405161032191906128c1565b60405180910390f35b610344600480360381019061033f9190611fac565b610dde565b005b610360600480360381019061035b9190611ddc565b610e89565b60405161036d91906128e3565b60405180910390f35b61037e610f1d565b60405161038b9190612b20565b60405180910390f35b6103ae60048036038101906103a99190612043565b610f29565b6040516103bb91906128fe565b60405180910390f35b60007f80ac58cd000000000000000000000000000000000000000000000000000000007bffffffffffffffffffffffffffffffffffffffffffffffffffffffff1916827bffffffffffffffffffffffffffffffffffffffffffffffffffffffff1916148061048f57507f5b5e139f000000000000000000000000000000000000000000000000000000007bffffffffffffffffffffffffffffffffffffffffffffffffffffffff1916827bffffffffffffffffffffffffffffffffffffffffffffffffffffffff1916145b8061049f575061049e82611093565b5b9050919050565b6060600080546104b590612db9565b80601f01602080910402602001604051908101604052809291908181526020018280546104e190612db9565b801561052e5780601f106105035761010080835404028352916020019161052e565b820191906000526020600020905b81548152906001019060200180831161051157829003601f168201915b5050505050905090565b6000610543826110fd565b610582576040517f08c379a000000000000000000000000000000000000000000000000000000000815260040161057990612a60565b60405180910390fd5b6004600083815260200190815260200160002060009054906101000a900473ffffffffffffffffffffffffffffffffffffffff169050919050565b60006105c882610755565b90508073ffffffffffffffffffffffffffffffffffffffff168373ffffffffffffffffffffffffffffffffffffffff161415610639576040517f08c379a000000000000000000000000000000000000000000000000000000000815260040161063090612ae0565b60405180910390fd5b8073ffffffffffffffffffffffffffffffffffffffff16610658611169565b73ffffffffffffffffffffffffffffffffffffffff161480610687575061068681610681611169565b610e89565b5b6106c6576040517f08c379a00000000000000000000000000000000000000000000000000000000081526004016106bd906129c0565b60405180910390fd5b6106d08383611171565b505050565b6106e66106e0611169565b8261122a565b610725576040517f08c379a000000000000000000000000000000000000000000000000000000000815260040161071c90612b00565b60405180910390fd5b610730838383611308565b505050565b61075083838360405180602001604052806000815250610ae8565b505050565b6000806002600084815260200190815260200160002060009054906101000a900473ffffffffffffffffffffffffffffffffffffffff169050600073ffffffffffffffffffffffffffffffffffffffff168173ffffffffffffffffffffffffffffffffffffffff1614156107fe576040517f08c379a00000000000000000000000000000000000000000000000000000000081526004016107f590612a00565b60405180910390fd5b80915050919050565b610819610812611169565b8383610735565b5050565b60008073ffffffffffffffffffffffffffffffffffffffff168273ffffffffffffffffffffffffffffffffffffffff16141561088e576040517f08c379a0000000000000000000000000000000000000000000000000000000008152600401610885906129e0565b60405180910390fd5b600360008373ffffffffffffffffffffffffffffffffffffffff1673ffffffffffffffffffffffffffffffffffffffff168152602001908152602001600020549050919050565b6060600180546108e490612db9565b80601f016020809104026020016040519081016040528092919081815260200182805461091090612db9565b801561095d5780601f106109325761010080835404028352916020019161095d565b820191906000526020600020905b81548152906001019060200180831161094057829003601f168201915b5050505050905090565b61096f611169565b73ffffffffffffffffffffffffffffffffffffffff168273ffffffffffffffffffffffffffffffffffffffff1614156109dd576040517f08c379a00000000000000000000000000000000000000000000000000000000081526004016109d490612980565b60405180910390fd5b80600560006109ea611169565b73ffffffffffffffffffffffffffffffffffffffff1673ffffffffffffffffffffffffffffffffffffffff16815260200190815260200160002060008473ffffffffffffffffffffffffffffffffffffffff1673ffffffffffffffffffffffffffffffffffffffff16815260200190815260200160002060006101000a81548160ff0219169083151502179055508173ffffffffffffffffffffffffffffffffffffffff16610a97611169565b73ffffffffffffffffffffffffffffffffffffffff167f17307eab39ab6107e8899845ad3d59bd9653f200f220920489ca2b5937696c3183604051610adc91906128e3565b60405180910390a35050565b610af9610af3611169565b8361122a565b610b38576040517f08c379a0000000000000000000000000000000000000000000000000000000008152600401610b2f90612b00565b60405180910390fd5b610b4484848484611564565b50505050565b6060610b55826110fd565b610b94576040517f08c379a0000000000000000000000000000000000000000000000000000000008152600401610b8b90612ac0565b60405180910390fd5b6000610b9e6115c0565b90506000815111610bbe5760405180602001604052806000815250610be9565b80610bc8846115d7565b604051602001610bd99291906127ef565b6040516020818303038152906040525b915050919050565b60606000610c05610c00611169565b61081d565b90506000811415610c8857600067ffffffffffffffff811115610c51577f4e487b7100000000000000000000000000000000000000000000000000000000600052604160045260246000fd5b604051908082528060200260200182016040528015610c7f5781602001602082028036833780820191505090505b50915050610ddb565b60008167ffffffffffffffff811115610cca577f4e487b7100000000000000000000000000000000000000000000000000000000600052604160045260246000fd5b604051908082528060200260200182016040528015610cf85781602001602082028036833780820191505090505b5090506000610d0760066117a3565b9050600080600190505b828111610dd257610d21816110fd565b15610dbf57610d2e611169565b73ffffffffffffffffffffffffffffffffffffffff16610d4d82610755565b73ffffffffffffffffffffffffffffffffffffffff161415610dbe5780848381518110610da3577f4e487b7100000000000000000000000000000000000000000000000000000000600052603260045260246000fd5b6020026020010181815250508180610dba90612deb565b9250505b5b8080610dca90612deb565b915050610d11565b83955050505050505b90565b610de860066117b1565b610df260076117b1565b610e30610dfd611169565b610e0760066117a3565b858585604051602001610e1c93929190612813565b6040516020818303038152906040526117c7565b828282604051602001610e4593929190612813565b60405160208183030381529060405260086000610e6260066117a3565b81526020019081526020016000209080519060200190610e83929190611bd7565b50505050565b6000600560008473ffffffffffffffffffffffffffffffffffffffff1673ffffffffffffffffffffffffffffffffffffffff16815260200190815260200160002060008373ffffffffffffffffffffffffffffffffffffffff1673ffffffffffffffffffffffffffffffffffffffff16815260200190815260200160002060009054906101000a900460ff16905092915050565b60078060000154905081565b6060610f34826110fd565b610f73576040517f08c379a0000000000000000000000000000000000000000000000000000000008152600401610f6a90612a20565b60405180910390fd5b610f7b611169565b73ffffffffffffffffffffffffffffffffffffffff16610f9a83610755565b73ffffffffffffffffffffffffffffffffffffffff1614610ff0576040517f08c379a0000000000000000000000000000000000000000000000000000000008152600401610fe790612a80565b60405180910390fd5b60086000838152602001908152602001600020805461100e90612db9565b80601f016020809104026020016040519081016040528092919081815260200182805461103a90612db9565b80156110875780601f1061105c57610100808354040283529160200191611087565b820191906000526020600020905b81548152906001019060200180831161106a57829003601f168201915b50505050509050919050565b60007f01ffc9a7000000000000000000000000000000000000000000000000000000007bffffffffffffffffffffffffffffffffffffffffffffffffffffffff1916827bffffffffffffffffffffffffffffffffffffffffffffffffffffffff1916149050919050565b60008073ffffffffffffffffffffffffffffffffffffffff166002600084815260200190815260200160002060009054906101000a900473ffffffffffffffffffffffffffffffffffffffff1673ffffffffffffffffffffffffffffffffffffffff1614159050919050565b600033905090565b816004600083815260200190815260200160002060006101000a81548173ffffffffffffffffffffffffffffffffffffffff021916908373ffffffffffffffffffffffffffffffffffffffff160217905550808273ffffffffffffffffffffffffffffffffffffffff166111e483610755565b73ffffffffffffffffffffffffffffffffffffffff167f8c5be1e5ebec7d5bd14f71427d1e84f3dd0314c0f7b2291e5b200ac8c7c3b92560405160405180910390a45050565b6000611235826110fd565b611274576040517f08c379a000000000000000000000000000000000000000000000000000000000815260040161126b906129a0565b60405180910390fd5b600061127f83610755565b90508073ffffffffffffffffffffffffffffffffffffffff168473ffffffffffffffffffffffffffffffffffffffff1614806112ee57508373ffffffffffffffffffffffffffffffffffffffff166112d684610538565b73ffffffffffffffffffffffffffffffffffffffff16145b806112ff57506112fe8185610e89565b5b91505092915050565b8273ffffffffffffffffffffffffffffffffffffffff1661132882610755565b73ffffffffffffffffffffffffffffffffffffffff161461137e576040517f08c379a000000000000000000000000000000000000000000000000000000000815260040161137590612aa0565b60405180910390fd5b600073ffffffffffffffffffffffffffffffffffffffff168273ffffffffffffffffffffffffffffffffffffffff1614156113ee576040517f08c379a00000000000000000000000000000000000000000000000000000000081526004016113e590612960565b60405180910390fd5b6113f9838383611822565b611404600082611171565b6001600360008573ffffffffffffffffffffffffffffffffffffffff1673ffffffffffffffffffffffffffffffffffffffff16815260200190815260200160002060008282546114549190612ccf565b925050819055506001600360008473ffffffffffffffffffffffffffffffffffffffff1673ffffffffffffffffffffffffffffffffffffffff16815260200190815260200160002060008282546114ab9190612c48565b92505081905550816002600083815260200190815260200160002060006101000a81548173ffffffffffffffffffffffffffffffffffffffff021916908373ffffffffffffffffffffffffffffffffffffffff160217905550808273ffffffffffffffffffffffffffffffffffffffff168473ffffffffffffffffffffffffffffffffffffffff167fddf252ad1be2c89b69c2b068fc378daa952ba7f163c4a11628f55a4df523b3ef60405160405180910390a4505050565b61156f848484611308565b61157b84848484611827565b6115ba576040517f08c379a00000000000000000000000000000000000000000000000000000000081526004016115b190612920565b60405180910390fd5b50505050565b606060405180602001604052806000815250905090565b6060600082141561161f576040518060400160405280600181526020017f3000000000000000000000000000000000000000000000000000000000000000815250905061179e565b600082905060005b6000821461165157808061163a90612deb565b915050600a8261164a9190612c9e565b9150611627565b60008167ffffffffffffffff811115611693577f4e487b7100000000000000000000000000000000000000000000000000000000600052604160045260246000fd5b6040519080825280601f01601f1916602001820160405280156116c55781602001600182028036833780820191505090505b5090505b60008514611797576001826116de9190612ccf565b9150600a856116ed9190612e34565b60306116f99190612c48565b7f010000000000000000000000000000000000000000000000000000000000000002818381518110611754577f4e487b7100000000000000000000000000000000000000000000000000000000600052603260045260246000fd5b60200101907effffffffffffffffffffffffffffffffffffffffffffffffffffffffffffff1916908160001a905350600a856117909190612c9e565b94506116c9565b8093505050505b919050565b600081600001549050919050565b6001816000016000828254019250508190555050565b6117d183836119f6565b6117de6000848484611827565b61181d576040517f08c379a000000000000000000000000000000000000000000000000000000000815260040161181490612920565b60405180910390fd5b505050565b505050565b60006118488473ffffffffffffffffffffffffffffffffffffffff16611bc4565b156119e9578373ffffffffffffffffffffffffffffffffffffffff1663150b7a02611871611169565b8786866040518563ffffffff167c01000000000000000000000000000000000000000000000000000000000281526004016118af9493929190612875565b602060405180830381600087803b1580156118c957600080fd5b505af19250505080156118fa57506040513d601f19601f820116820180604052508101906118f79190611f83565b60015b61197d573d806000811461192a576040519150601f19603f3d011682016040523d82523d6000602084013e61192f565b606091505b50600081511415611975576040517f08c379a000000000000000000000000000000000000000000000000000000000815260040161196c90612920565b60405180910390fd5b805181602001fd5b63150b7a027c0100000000000000000000000000000000000000000000000000000000027bffffffffffffffffffffffffffffffffffffffffffffffffffffffff1916817bffffffffffffffffffffffffffffffffffffffffffffffffffffffff1916149150506119ee565b600190505b949350505050565b600073ffffffffffffffffffffffffffffffffffffffff168273ffffffffffffffffffffffffffffffffffffffff161415611a66576040517f08c379a0000000000000000000000000000000000000000000000000000000008152600401611a5d90612a40565b60405180910390fd5b611a6f816110fd565b15611aaf576040517f08c379a0000000000000000000000000000000000000000000000000000000008152600401611aa690612940565b60405180910390fd5b611abb60008383611822565b6001600360008473ffffffffffffffffffffffffffffffffffffffff1673ffffffffffffffffffffffffffffffffffffffff1681526020019081526020016000206000828254611b0b9190612c48565b92505081905550816002600083815260200190815260200160002060006101000a81548173ffffffffffffffffffffffffffffffffffffffff021916908373ffffffffffffffffffffffffffffffffffffffff160217905550808273ffffffffffffffffffffffffffffffffffffffff16600073ffffffffffffffffffffffffffffffffffffffff167fddf252ad1be2c89b69c2b068fc378daa952ba7f163c4a11628f55a4df523b3ef60405160405180910390a45050565b600080823b905060008111915050919050565b828054611be390612db9565b90600052602060002090601f016020900481019282611c055760008555611c4c565b82601f10611c1e57805160ff1916838001178555611c4c565b82800160010185558215611c4c579182015b82811115611c4b578251825591602001919060010190611c30565b5b509050611c599190611c5d565b5090565b5b80821115611c76576000816000905550600101611c5e565b5090565b6000611c8d611c8884612b6c565b612b3b565b905082815260208101848484011115611ca557600080fd5b611cb0848285612d77565b509392505050565b6000611ccb611cc684612b9c565b612b3b565b905082815260208101848484011115611ce357600080fd5b611cee848285612d77565b509392505050565b600081359050611d0581612f32565b92915050565b600081359050611d1a81612f49565b92915050565b600081359050611d2f81612f60565b92915050565b600081519050611d4481612f60565b92915050565b600082601f830112611d5b57600080fd5b8135611d6b848260208601611c7a565b91505092915050565b600082601f830112611d8557600080fd5b8135611d95848260208601611cb8565b91505092915050565b600081359050611dad81612f77565b92915050565b600060208284031215611dc557600080fd5b6000611dd384828501611cf6565b91505092915050565b60008060408385031215611def57600080fd5b6000611dfd85828601611cf6565b9250506020611e0e85828601611cf6565b9150509250929050565b600080600060608486031215611e2d57600080fd5b6000611e3b86828701611cf6565b9350506020611e4c86828701611cf6565b9250506040611e5d86828701611d9e565b9150509250925092565b60008060008060808587031215611e7d57600080fd5b6000611e8b87828801611cf6565b9450506020611e9c87828801611cf6565b9350506040611ead87828801611d9e565b925050606085013567ffffffffffffffff811115611eca57600080fd5b611ed687828801611d4a565b91505092959194509250565b60008060408385031215611ef557600080fd5b6000611f0385828601611cf6565b9250506020611f1485828601611d0b565b9150509250929050565b60008060408385031215611f3157600080fd5b6000611f3f85828601611cf6565b9250506020611f5085828601611d9e565b9150509250929050565b600060208284031215611f6c57600080fd5b6000611f7a84828501611d20565b91505092915050565b600060208284031215611f9557600080fd5b6000611fa384828501611d35565b91505092915050565b600080600060608486031215611fc157600080fd5b600084013567ffffffffffffffff811115611fdb57600080fd5b611fe786828701611d74565b935050602084013567ffffffffffffffff81111561200457600080fd5b61201086828701611d74565b925050604084013567ffffffffffffffff81111561202d57600080fd5b61203986828701611d74565b9150509250925092565b60006020828403121561205557600080fd5b600061206384828501611d9e565b91505092915050565b600061207883836127d1565b60208301905092915050565b61208d81612d03565b82525050565b600061209e82612bdc565b6120a88185612c0a565b93506120b383612bcc565b8060005b838110156120e45781516120cb888261206c565b97506120d683612bfd565b9250506001810190506120b7565b5085935050505092915050565b6120fa81612d15565b82525050565b600061210b82612be7565b6121158185612c1b565b9350612125818560208601612d86565b61212e81612f21565b840191505092915050565b600061214482612bf2565b61214e8185612c2c565b935061215e818560208601612d86565b61216781612f21565b840191505092915050565b600061217d82612bf2565b6121878185612c3d565b9350612197818560208601612d86565b80840191505092915050565b60006121b0603283612c2c565b91507f4552433732313a207472616e7366657220746f206e6f6e20455243373231526560008301527f63656976657220696d706c656d656e74657200000000000000000000000000006020830152604082019050919050565b6000612216601c83612c2c565b91507f4552433732313a20746f6b656e20616c7265616479206d696e746564000000006000830152602082019050919050565b6000612256602483612c2c565b91507f4552433732313a207472616e7366657220746f20746865207a65726f2061646460008301527f72657373000000000000000000000000000000000000000000000000000000006020830152604082019050919050565b60006122bc601983612c2c565b91507f4552433732313a20617070726f766520746f2063616c6c6572000000000000006000830152602082019050919050565b60006122fc602c83612c2c565b91507f4552433732313a206f70657261746f7220717565727920666f72206e6f6e657860008301527f697374656e7420746f6b656e00000000000000000000000000000000000000006020830152604082019050919050565b6000612362603883612c2c565b91507f4552433732313a20617070726f76652063616c6c6572206973206e6f74206f7760008301527f6e6572206e6f7220617070726f76656420666f7220616c6c00000000000000006020830152604082019050919050565b60006123c8602a83612c2c565b91507f4552433732313a2062616c616e636520717565727920666f7220746865207a6560008301527f726f2061646472657373000000000000000000000000000000000000000000006020830152604082019050919050565b600061242e602983612c2c565b91507f4552433732313a206f776e657220717565727920666f72206e6f6e657869737460008301527f656e7420746f6b656e00000000000000000000000000000000000000000000006020830152604082019050919050565b6000612494602383612c2c565b91507f4552433732313a20717565727920666f72206e6f6e6578697374656e7420746f60008301527f6b656e00000000000000000000000000000000000000000000000000000000006020830152604082019050919050565b60006124fa602083612c2c565b91507f4552433732313a206d696e7420746f20746865207a65726f20616464726573736000830152602082019050919050565b600061253a602c83612c2c565b91507f4552433732313a20617070726f76656420717565727920666f72206e6f6e657860008301527f697374656e7420746f6b656e00000000000000000000000000000000000000006020830152604082019050919050565b60006125a0602383612c2c565b91507f4552433732313a20746f6b656e20646f65736e27742062656c6f6e6720746f2060008301527f796f7500000000000000000000000000000000000000000000000000000000006020830152604082019050919050565b6000612606602983612c2c565b91507f4552433732313a207472616e73666572206f6620746f6b656e2074686174206960008301527f73206e6f74206f776e00000000000000000000000000000000000000000000006020830152604082019050919050565b600061266c602f83612c2c565b91507f4552433732314d657461646174613a2055524920717565727920666f72206e6f60008301527f6e6578697374656e7420746f6b656e00000000000000000000000000000000006020830152604082019050919050565b60006126d2602183612c2c565b91507f4552433732313a20617070726f76616c20746f2063757272656e74206f776e6560008301527f72000000000000000000000000000000000000000000000000000000000000006020830152604082019050919050565b6000612738603183612c2c565b91507f4552433732313a207472616e736665722063616c6c6572206973206e6f74206f60008301527f776e6572206e6f7220617070726f7665640000000000000000000000000000006020830152604082019050919050565b600061279e600183612c3d565b91507f7c000000000000000000000000000000000000000000000000000000000000006000830152600182019050919050565b6127da81612d6d565b82525050565b6127e981612d6d565b82525050565b60006127fb8285612172565b91506128078284612172565b91508190509392505050565b600061281f8286612172565b915061282a82612791565b91506128368285612172565b915061284182612791565b915061284d8284612172565b9150819050949350505050565b600060208201905061286f6000830184612084565b92915050565b600060808201905061288a6000830187612084565b6128976020830186612084565b6128a460408301856127e0565b81810360608301526128b68184612100565b905095945050505050565b600060208201905081810360008301526128db8184612093565b905092915050565b60006020820190506128f860008301846120f1565b92915050565b600060208201905081810360008301526129188184612139565b905092915050565b60006020820190508181036000830152612939816121a3565b9050919050565b6000602082019050818103600083015261295981612209565b9050919050565b6000602082019050818103600083015261297981612249565b9050919050565b60006020820190508181036000830152612999816122af565b9050919050565b600060208201905081810360008301526129b9816122ef565b9050919050565b600060208201905081810360008301526129d981612355565b9050919050565b600060208201905081810360008301526129f9816123bb565b9050919050565b60006020820190508181036000830152612a1981612421565b9050919050565b60006020820190508181036000830152612a3981612487565b9050919050565b60006020820190508181036000830152612a59816124ed565b9050919050565b60006020820190508181036000830152612a798161252d565b9050919050565b60006020820190508181036000830152612a9981612593565b9050919050565b60006020820190508181036000830152612ab9816125f9565b9050919050565b60006020820190508181036000830152612ad98161265f565b9050919050565b60006020820190508181036000830152612af9816126c5565b9050919050565b60006020820190508181036000830152612b198161272b565b9050919050565b6000602082019050612b3560008301846127e0565b92915050565b6000604051905081810181811067ffffffffffffffff82111715612b6257612b61612ef2565b5b8060405250919050565b600067ffffffffffffffff821115612b8757612b86612ef2565b5b601f19601f8301169050602081019050919050565b600067ffffffffffffffff821115612bb757612bb6612ef2565b5b601f19601f8301169050602081019050919050565b6000819050602082019050919050565b600081519050919050565b600081519050919050565b600081519050919050565b6000602082019050919050565b600082825260208201905092915050565b600082825260208201905092915050565b600082825260208201905092915050565b600081905092915050565b6000612c5382612d6d565b9150612c5e83612d6d565b9250827fffffffffffffffffffffffffffffffffffffffffffffffffffffffffffffffff03821115612c9357612c92612e65565b5b828201905092915050565b6000612ca982612d6d565b9150612cb483612d6d565b925082612cc457612cc3612e94565b5b828204905092915050565b6000612cda82612d6d565b9150612ce583612d6d565b925082821015612cf857612cf7612e65565b5b828203905092915050565b6000612d0e82612d4d565b9050919050565b60008115159050919050565b60007fffffffff0000000000000000000000000000000000000000000000000000000082169050919050565b600073ffffffffffffffffffffffffffffffffffffffff82169050919050565b6000819050919050565b82818337600083830152505050565b60005b83811015612da4578082015181840152602081019050612d89565b83811115612db3576000848401525b50505050565b60006002820490506001821680612dd157607f821691505b60208210811415612de557612de4612ec3565b5b50919050565b6000612df682612d6d565b91507fffffffffffffffffffffffffffffffffffffffffffffffffffffffffffffffff821415612e2957612e28612e65565b5b600182019050919050565b6000612e3f82612d6d565b9150612e4a83612d6d565b925082612e5a57612e59612e94565b5b828206905092915050565b7f4e487b7100000000000000000000000000000000000000000000000000000000600052601160045260246000fd5b7f4e487b7100000000000000000000000000000000000000000000000000000000600052601260045260246000fd5b7f4e487b7100000000000000000000000000000000000000000000000000000000600052602260045260246000fd5b7f4e487b7100000000000000000000000000000000000000000000000000000000600052604160045260246000fd5b6000601f19601f8301169050919050565b612f3b81612d03565b8114612f4657600080fd5b50565b612f5281612d15565b8114612f5d57600080fd5b50565b612f6981612d21565b8114612f7457600080fd5b50565b612f8081612d6d565b8114612f8b57600080fd5b5056fea26469706673582212200dd1337683d43f40cd15ef5353a870ea6fb1e4666e04bd8df0c0edefa0484b0b64736f6c63430008000033",
  "immutableReferences": {},
  "source": "// SPDX-License-Identifier: MIT\npragma solidity ^0.8.0;\n\n// blocation-contract/node_modules/@openzeppelin/contracts/token/ERC721/ERC721.sol\n\nimport \"@openzeppelin/contracts/token/ERC721/ERC721.sol\";\nimport \"@openzeppelin/contracts/utils/Counters.sol\";\n\ncontract Blocation is ERC721 {\n    using Counters for Counters.Counter;\n\n    Counters.Counter private currentTokenId;\n    Counters.Counter public totalTokenSuppy;\n\n    mapping(uint256 => string) private locations;\n\n    constructor() ERC721(\"Blocation\", \"BLCTN\") {}\n\n    function createBlocation(\n        string memory _tag,\n        string memory _long,\n        string memory _lat\n    ) public {\n        currentTokenId.increment();\n        totalTokenSuppy.increment();\n        _safeMint(\n            _msgSender(),\n            currentTokenId.current(),\n            abi.encodePacked(_tag, \"|\", _long, \"|\", _lat)\n        );\n        locations[currentTokenId.current()] = string(\n            abi.encodePacked(_tag, \"|\", _long, \"|\", _lat)\n        );\n    }\n\n    function getBlocation(uint256 _tokenId)\n        public\n        view\n        returns (string memory)\n    {\n        require(_exists(_tokenId), \"ERC721: query for nonexistent token\");\n        require(\n            ownerOf(_tokenId) == _msgSender(),\n            \"ERC721: token doesn't belong to you\"\n        );\n        return locations[_tokenId];\n    }\n\n    function transferBlocation(address to, uint256 _tokenId) public {\n        safeTransferFrom(_msgSender(), to, _tokenId);\n    }\n\n    function blocationsOfOwner() external view returns (uint256[] memory) {\n        uint256 tokenCount = balanceOf(_msgSender());\n\n        if (tokenCount == 0) {\n            return new uint256[](0);\n        } else {\n            uint256[] memory result = new uint256[](tokenCount);\n            uint256 totalBlocTokens = currentTokenId.current();\n            uint256 resultIndex = 0;\n\n            uint256 _tokenId;\n\n            for (_tokenId = 1; _tokenId <= totalBlocTokens; _tokenId++) {\n                if (_exists(_tokenId)) {\n                    if (ownerOf(_tokenId) == _msgSender()) {\n                        result[resultIndex] = _tokenId;\n                        resultIndex++;\n                    }\n                }\n            }\n\n            return result;\n        }\n    }\n}\n",
  "sourcePath": "/Users/wrungcodes/Desktop/projects/blocation-smart-contract/contracts/Blocation.sol",
  "compiler": {
    "name": "solc",
    "version": "0.8.0+commit.c7dfd78e.Emscripten.clang"
  },
  "schemaVersion": "3.4.1",
  "updatedAt": "2021-06-23T00:06:57.626Z",
  "networkType": "ethereum",
  "devdoc": {
    "kind": "dev",
    "methods": {
      "approve(address,uint256)": {
        "details": "See {IERC721-approve}."
      },
      "balanceOf(address)": {
        "details": "See {IERC721-balanceOf}."
      },
      "getApproved(uint256)": {
        "details": "See {IERC721-getApproved}."
      },
      "isApprovedForAll(address,address)": {
        "details": "See {IERC721-isApprovedForAll}."
      },
      "name()": {
        "details": "See {IERC721Metadata-name}."
      },
      "ownerOf(uint256)": {
        "details": "See {IERC721-ownerOf}."
      },
      "safeTransferFrom(address,address,uint256)": {
        "details": "See {IERC721-safeTransferFrom}."
      },
      "safeTransferFrom(address,address,uint256,bytes)": {
        "details": "See {IERC721-safeTransferFrom}."
      },
      "setApprovalForAll(address,bool)": {
        "details": "See {IERC721-setApprovalForAll}."
      },
      "supportsInterface(bytes4)": {
        "details": "See {IERC165-supportsInterface}."
      },
      "symbol()": {
        "details": "See {IERC721Metadata-symbol}."
      },
      "tokenURI(uint256)": {
        "details": "See {IERC721Metadata-tokenURI}."
      },
      "transferFrom(address,address,uint256)": {
        "details": "See {IERC721-transferFrom}."
      }
    },
    "version": 1
  },
  "userdoc": {
    "kind": "user",
    "methods": {},
    "version": 1
  }
}